:10000000002000100D0100008501000085010000A6
:1000100000000000000000000000000000000000E0
:10002000000000000000000000000000850100004A
:100030000000000000000000850100008D010000AC
:100040008501000085010000850100008501000098
:100050008501000085010000850100008501000088
:100060008501000085010000850100008501000078
:100070008501000085010000850100008501000068
:100080008501000085010000850100008501000058
:100090008501000085010000850100008501000048
:1000A0008501000085010000850100008501000038
:1000B0008501000085010000850100008501000028
:1000C00080B500AF0B4B00221A600B4B23221A6045
:1000D0000A4B0A4A126880218A431A60084B01229F
:1000E0001A60084B03221A60074B01221A60BD46B2
:1000F00080BDC046408004400880044038820440EF
:1001000044800440708004407480044080B584B012
:1001100000AF174BFB60174BBB60174A154BD31A48
:100120007B6007E0BB685A1CBA60FA68511CF96032
:1001300012781A707B685A1E7A60002BF2D10F4B2E
:10014000BB600F4A0D4BD31A7B6004E0BB685A1C9E
:10015000BA6000221A707B685A1E7A60002BF5D1B3
:10016000FFF7AEFF00F0AEF9BD4604B080BDC0465B
:1001700084060000000000100800001008000010B5
:100180002000001080B500AFFEE7C04680B500AF8C
:10019000334B1B685A1C324B1A60314B1B68092BBE
:1001A00007DD2F4B00221A602E4B1B685A1E2D4B69
:1001B0001A602C4B1B68002B0BDA2B4B1B68002B97
:1001C00007DD294B1B685A1E274B1A60254B3B2223
:1001D0001A60264B1B68022B13D002DC012B05D0C2
:1001E00030E0032B18D0042B21D02BE0204B0E2223
:1001F0001A601F4B1E4A11681E4A12680A431A6091
:1002000020E01B4B16221A60194B194A1168194A33
:1002100052680A431A6015E0154B1A221A60144BF3
:10022000134A1168134A92680A431A600AE0104B95
:100230001C221A600E4B0E4A11680E4AD2680A43FD
:100240001A60C046094B1B685A1C084B1A60074BC2
:100250001B68042B02DD054B01221A60BD4680BDE0
:10026000080000100C000010000000100400001036
:10027000FC3F00501000001080B500AF074B074A4C
:10028000126807210A431A60054B064A1A60064B9A
:1002900005221A6062B6BD4680BDC04610E000E08F
:1002A00014E000E07FBB000018E000E080B582B001
:1002B00000AF7860C0467B685A1E7A60002BFAD186
:1002C000BD4602B080BDC04680B582B000AF786048
:1002D0007B68181C0A2100F0B3F90B1C1A1C224B76
:1002E0005200D35A1AB2214B1A607B68181C0A219B
:1002F00000F050F9031C7B607B68181C0A2100F099
:100300009FF90B1C1A1C184B5200D35A1AB2174BE8
:100310005A607B68181C0A2100F03CF9031C7B60C2
:100320007B68181C0A2100F08BF90B1C1A1C0E4B61
:100330005200D35A1AB20D4B9A607B68181C0A21DE
:1003400000F028F9031C7B607B68181C0A2100F070
:1003500077F90B1C1A1C044B5200D35A1AB2034BE8
:10036000DA60BD4602B080BD5806000010000010E3
:1003700080B500AFF0231B011AB2094B1A60A0230D
:100380001B011AB2064B5A60EE231B011AB2044B32
:100390009A60E2231B011AB2014BDA60BD4680BDB0
:1003A0001000001080B500AF00231AB2084B1A608D
:1003B00000231AB2064B5A60A8231B011AB2044B41
:1003C0009A6080231AB2024BDA60BD4680BDC046F7
:1003D0001000001080B500AFA0231B011AB2094B1A
:1003E0001A60E0239B001AB2064B5A60B8231B0127
:1003F0001AB2044B9A60DC231B011AB2014BDA607B
:10040000BD4680BD1000001080B500AFF2231B0177
:100410001AB2094B1A60E423DB001AB2064B5A6089
:10042000EE231B011AB2044B9A60E2231B011AB29D
:10043000014BDA60BD4680BD1000001080B500AFF2
:1004400000231AB2074B1A6000231AB2054B5A60F8
:1004500000231AB2034B9A6000231AB2014BDA60F0
:10046000BD4680BD1000001080B500AF0D4B0D4A99
:1004700012680D490A431A600C4B0D4A1A600D4B65
:100480001E221A600C4B0C4A1268802149000A4354
:100490001A600A4B01221A60094B01221A60BD46FC
:1004A00080BDC046808004404000010000800050B4
:1004B000FE0F0000FC3F0050344004406840044000
:1004C0007440044080B582B000AF294B7B60FFF7D9
:1004D000D3FEFFF7C9FF274B1B6864225A43264B04
:1004E0001B68D318181CFFF7EFFE224B1A68224B2B
:1004F0001B68D318002B3AD17A68204B9A4205DD4D
:10050000FFF736FF7B68013B7B602FE07A681C4B6E
:100510009A4209DD7A68194B9A4205DCFFF742FFDF
:100520007B68013B7B6021E07A68164B9A4209DDCB
:100530007A68154B9A4205DCFFF74CFF7B68013B5C
:100540007B6013E07A68114B9A420FDD7A680D4B9D
:100550009A420BDCFFF758FF7B68013B7B607A68AF
:100560000B4B9A4202DC024B7B60C5E7C4E7B2E763
:10057000D0121300000000100C00001040420F00C9
:10058000B0710B0020A10700E070720090D0030052
:1005900007BD0300002941D010B4041C4C40A44600
:1005A00001230022002900D54942002800D54042FD
:1005B00088422CD301242407A14204D2814202D2D2
:1005C00009011B01F8E7E400A14204D2814202D2F2
:1005D00049005B00F8E7884201D3401A1A434C08EF
:1005E000A04202D3001B5C0822438C08A04202D325
:1005F000001B9C082243CC08A04202D3001BDC084D
:100600002243002803D01B0901D00909E3E7101C8D
:100610006446002C00D5404210BC7047002806D02C
:1006200003DB0020C043400801E08020000607B43F
:10063000024802A14018029003BDC0461900000004
:100640000029EBD003B5FFF7A7FF0EBC4243891A80
:080650001847C0467047C04680
:10065800E007C000600BE009C00CA00DA00FE0008F
:10066800E00FE00D000F200EE00E000A8000800A67
:0C067800C00D80032007200F800B000045
:08068400180000000100000055
:00000001FF
